:020000040800F2
:10000000F82D002045010008711A0008AD0F000806
:10001000ED110008CF080008E325000800000000EB
:10002000000000000000000000000000AD1F0008FC
:100030005D0B000800000000391B0008B520000817
:100040005F0100085F0100085F0100085F01000810
:100050005F0100085F0100085F0B00085F010008F6
:100060005F0100085F0100085F0100080509000842
:100070005F0100085F0100085F0100085F010008E0
:100080005F0100085F0100085F0100085F010008D0
:100090005F0100085F0100085F0100085F010008C0
:1000A0005F0100085F0100085F0100085F010008B0
:1000B0005F0100085F0100085F0100085F010008A0
:1000C0005F0100085F0100085F0100085F01000890
:1000D0005F01000805220008A92200085F0100084E
:1000E000710B00085F0100085F0100085F01000854
:1000F0005F0100085F0100085F0100085F01000860
:100100005F0100085F0100085F0100085F0100084F
:100110005F0100085F0100085F0100085F0100083F
:100120005F0100085F0100085F0100085F0100082F
:10013000DFF80CD000F012FA00480047352A00081A
:10014000F82D00200648804706480047FEE7FEE7F6
:10015000FEE7FEE7FEE7FEE7FEE7FEE7FEE7FEE777
:10016000A52100083101000840EA01039B0703D0E4
:1001700009E008C9121F08C0042AFAD203E011F8E6
:10018000013B00F8013B521EF9D270472DE9FE4FAA
:1001900081EA030404F0004421F0004100944FF090
:1001A000000B23F0004350EA01045ED052EA03043E
:1001B0005BD0C3F30A54C1F30A552C44A4F2F334C0
:1001C0000194A0FB0254C1F3130141F48011C3F365
:1001D000130343F4801301FB024400FB034E840A23
:1001E000970A44EA815447EA8357A4FB07680295BB
:1001F0008D0A05FB07854FEA932C04FB0C54270559
:10020000029D4FEA065847EA1637B5EB08056EEB34
:10021000070C870E920E47EA811742EA8312A7FB6A
:100220000201B6EB0B0164EB00042B0D43EA0C3327
:100230005E1844EB1C50DA465146E7FB0201C5F359
:1002400013044FEA0B3343EA14534FEA0432019C80
:1002500043EA0603A4F10C040294009CCDE900B427
:1002600000F02DF903B0BDE8F08F00200146F9E75A
:100270002DE9F04D81EA030404F0004B21F0004524
:1002800014464FF0000A23F0004150EA050220D046
:1002900054EA01021DD0C5F30A570246C5F3130301
:1002A000C1F31300C1F30A5640F4801543F48013E0
:1002B000A7EB0608101BD64608F2FD3873EB0500C5
:1002C00002D308F1010801E092185B41B8F1000F78
:1002D00003DA00200146BDE8F08D00204FF48011C4
:1002E000064684460EE0171B73EB050705D3121B69
:1002F00063EB050306434CEA010C49084FEA300062
:1003000092185B4150EA0107EDD152EA030012D086
:1003100082EA040083EA0501084305D0101BAB41C3
:1003200006D20122002306E000224FF0004302E043
:100330006FF0010253101AEB06004CEB085110EB62
:100340000A0041EB0B01BDE8F04D00F0A9B800F048
:10035000004220F00040C10DC0F3160040F4000040
:100360007F2901DA00207047962903DCC1F196014C
:10037000C84001E096398840002AF4D040427047D6
:1003800020F00040C10DC0F3160040F400007F29AA
:1003900001DA00207047962903DCC1F19601C840BC
:1003A000704796398840704700F0004230F00040B6
:1003B0000AD0C10D01F56071C0F3160042EA015187
:1003C000C20840071143704700200146704701F002
:1003D000004330B421F0004150EA010206D00A0D7A
:1003E000A2F56072C1F31301002A02DC30BC0020C8
:1003F0007047440F44EAC104C100E01830BC00EB70
:10040000C25000F016B830B50B460146002020223D
:10041000012409E021FA02F59D4205D303FA02F511
:10042000491B04FA02F52844151EA2F10102F1DC71
:1004300030BD0029A8BF7047401C490008BF20F00C
:100440000100704710B4B0FA80FC00FA0CF050EADA
:10045000010404BF10BC704749B1CCF1200421FA5B
:1004600004F411FA0CF118BF012121430843A3EB56
:100470000C01CB1D4FEA00614FEA102042BF002063
:1004800010BC704700EBC35010440029A4BF10BC3F
:100490007047401C490008BF20F0010010BC7047A5
:1004A00010B5141E73F1000408DA401C41F100017C
:1004B00092185B411A4301D120F0010010BD2DE9D3
:1004C000F04D92469B4611B1B1FA81F202E0B0FACA
:1004D00080F22032904600F053F804460F4640EA7E
:1004E0000A0041EA0B0153465A46084313D011460D
:1004F00053EA010019D0C8F14002504600F04FF80D
:1005000005460E4650465946424600F039F8084323
:1005100005D0012004E020463946BDE8F08D0020DA
:10052000054346EAE0762C4337430A986305E40A1C
:10053000A0EB08000022FD0A44EA47540A3002D525
:1005400000200146E9E7010510196941DDE9084588
:1005500000196941BDE8F04DA2E70000064C074DC7
:1005600006E0E06840F0010394E807009847103483
:10057000AC42F6D3FFF7E0FDBC2D0008DC2D0008EF
:10058000202A04DB203A00FA02F100207047914053
:10059000C2F1200320FA03F3194390407047202A48
:1005A00004DB203A21FA02F00021704721FA02F31D
:1005B000D040C2F120029140084319467047000024
:1005C00008B50121084601F0C5FA0121480201F0F1
:1005D000E1FA0121042001F0DDFA1020ADF800005D
:1005E00000208DF8030069460F4800F08CFB0121C4
:1005F000042001F0CFFA2020ADF8000000208DF893
:1006000003006946084800F07EFB0121042001F048
:10061000C1FA4020ADF8000000208DF803006946C3
:10062000014800F070FB08BD0008014010B500F063
:1006300082FAFFF7C5FF00F001F810BD00B591B0D8
:100640003E4800F095F93E4806903E48079000204D
:1006500008904FF4B470099000200A9080200B900D
:1006600040000C9080000D9020200E9000020F9012
:100670000020109006A9314800F03FFA0122022123
:100680002E4800F031FA022000F058F901212B48E1
:1006900000F062F90020019001208DF808008DF82B
:1006A00009004FF4602003900020049003208DF88F
:1006B000140001A922484C3800F070F84FF4404073
:1006C00001F03CFA0723012204211D484C3800F0B8
:1006D0008DF807230222052119484C3800F086F8CE
:1006E00007230322062116484C3800F07FF8012129
:1006F00013484C3800F033F8012111484C3800F011
:1007000023F80F484C3800F0CDF800BF0C484C38A7
:1007100000F03AF80028F9D109484C3800F0D2F836
:1007200000BF07484C3800F025F80028F9D1012116
:1007300003484C3800F0BBF811B000BD080002407F
:100740004C2401405204002021B1826842F0010291
:10075000826003E0826822F001028260704721B16A
:10076000826842F48072826003E0826822F48072C0
:1007700082607047014600208A6802F004020AB1D4
:10078000012000E000207047014600208A6802F046
:1007900008020AB1012000E00020704730B502468F
:1007A0000020002350680F4C20400D790C6844EA6B
:1007B00005242043506090680B4C2040D1E902543E
:1007C0002C434D7944EA450420439060D06A20F4DC
:1007D00070000C7C641EE4B2234340EA0350D062F4
:1007E00030BD0000FFFEF0FFFDF7F1FFF0B504465D
:1007F0000D4600200021092D11DDE068A5F10A0653
:1008000006EB4607072606FA07F18843A5F10A0614
:1008100006EB460603FA06F10843E0600CE02069A7
:1008200005EB4507072606FA07F1884305EB450661
:1008300003FA06F108432061072A0FDA606B561E9F
:1008400006EB86071F2606FA07F18843561E06EBBD
:10085000860605FA06F10843606322E00D2A0FDAE6
:10086000206BD61F06EB86071F2606FA07F1884382
:10087000D61F06EB860605FA06F10843206310E052
:10088000E06AA2F10D0606EB86071F2606FA07F1BD
:100890008843A2F10D0606EB860605FA06F1084329
:1008A000E062F0BD816841F008018160704721B1CC
:1008B000826842F4A002826003E0826822F4A0020F
:1008C00082607047816841F004018160704700BF19
:1008D000FEE7000030B502460B464FF6FF7008E019
:1008E00012F8014B4440E1B20012054C34F81140BB
:1008F00060401C00A3F10105EBB2F1D130BD000056
:10090000BA2B000810B5022000F0D8F801280ED14B
:10091000022000F013F80648006840B94FF4347222
:1009200004490548FFF720FC01200149086010BD7B
:1009300044000020520400202207002000F08051D3
:1009400011B10349086001E00249486070470000A6
:10095000040402400000024021B1026842F001029A
:10096000026004E002684FF6FE731A4002607047AE
:1009700001684FF6FE721140016000210160416084
:100980008160C1604B49884208D14A4908394968A9
:1009900041F00F01474A083A51608AE04549143155
:1009A000884208D143490839496841F0F001414A79
:1009B000083A51607DE03F492831884208D13D49DD
:1009C0000839496841F470613A4A083A516070E068
:1009D00038493C31884208D136490839496841F4E0
:1009E0007041344A083A516063E0324950318842DC
:1009F00008D130490839496841F470212D4A083A34
:100A0000516056E02B496431884208D129490839A0
:100A1000496841F47001274A083A516049E0254984
:100A20007831884208D123490839496841F070611A
:100A3000204A083A51603CE01F49884206D1011F14
:100A4000096841F00F01021F116032E01A491431A8
:100A5000884208D11849091F096841F0F001164A77
:100A6000121F116025E014492831884208D112492B
:100A7000091F096841F470610F4A121F116018E0E4
:100A80000D493C31884208D10B49091F096841F4DE
:100A90007041094A121F11600BE00749503188422A
:100AA00007D10549091F096841F47021024A121F44
:100AB000116070470800024008040240014600200F
:100AC000002201F0805313B1054B1A6801E0054B79
:100AD0001A6802EA01030BB1012000E00020704710
:100AE00000040240000002401AB103680B43036097
:100AF00002E003688B430360704710B50022026870
:100B000047F6F0739A430C6A8B6823430C692343BE
:100B10004C6923438C692343CC6923434C6A2343A8
:100B20008C6A23431A430260CB6843600B6883607E
:100B30004B68C36010BD08B54FF4C06000F0D2FF31
:100B40000B208DF8000001208DF801008DF80200C7
:100B50008DF80300684600F08DFF08BD704710B5A2
:100B6000012000F017F810B1012000F00DF810BDC1
:100B700010B54FF4005000F00DF818B14FF40050CC
:100B800000F002F810BD0000014908607047000045
:100B900014040140014600200022074B1B6803EAB1
:100BA0000102054B14331B680B4013B10AB101203D
:100BB00000E0002070470000000401400149C860C7
:100BC000704700000020024030B5044604254FF471
:100BD000302000F085F80546042D17D10C48006937
:100BE00040F002000A49086108464461006940F08B
:100BF000400008614FF4302000F072F805460448C8
:100C0000006941F6FD71084001490861284630BD80
:100C10000020024004200B49C96801F0010109B11C
:100C200001200EE00749C96801F0040109B1022062
:100C300007E00449C96801F0100109B1032000E090
:100C400004207047002002400348006940F0800003
:100C500001490861704700000020024078B506464F
:100C60000C46042500200090E80200F039F8054603
:100C7000042D24D11348006940F001001149086196
:100C80003480E80200F02CF80546042D10D1B01C89
:100C90000090200C00990880E80200F021F8054639
:100CA0000848006941F6FE7108400649086106E0FF
:100CB0000448006941F6FE7108400249086128466F
:100CC00078BD000000200240024803494860034804
:100CD000486070472301674500200240AB89EFCD93
:100CE00000B502460423FFF795FF034603E0FFF734
:100CF00091FF0346521E012B01D1002AF7D102B900
:100D00000523184600BD2DE9F041024600250026C6
:100D1000002000230024002791F803C00CF00F05E9
:100D200091F803C00CF0100CBCF1000F03D091F847
:100D300002C04CEA050591F800C0BCF1000F31D0AB
:100D4000146800202BE04FF0010C0CFA00F3B1F80E
:100D500000C00CEA03069E4220D183004FF00F0C26
:100D60000CFA03F7BC4305FA03FC4CEA040491F8BF
:100D700003C0BCF1280F06D14FF0010C0CFA00FCA7
:100D8000C2F814C00AE091F803C0BCF1480F05D1C5
:100D90004FF0010C0CFA00FCC2F810C0401C0828EF
:100DA000D1D31460B1F800C0BCF1FF0F34DD54683A
:100DB00000202EE000F1080C4FF0010808FA0CF3B7
:100DC000B1F800C00CEA03069E4221D183004FF027
:100DD0000F0C0CFA03F7BC4305FA03FC4CEA0404BD
:100DE00091F803C0BCF1280F05D100F1080C08FAF6
:100DF0000CF8C2F8148091F803C0BCF1480F07D179
:100E000000F1080C4FF0010808FA0CF8C2F8108045
:100E1000401C0828CED35460BDE8F081F0B50A46E6
:100E2000002300240021002500F00046B6F1004F09
:100E300002D11D4EF16901E01B4E7168C0F30345FC
:100E400083B200F44016B6F5401F08D121F070615E
:100E5000154E766826F07066134F7E6012E000F43F
:100E60008016B6F5801F06D1032606FA05F4A143C5
:100E700041F0706106E0460D360103FA06F6B14313
:100E800041F0706122B1460D360103FA06F6314396
:100E900000F00046B6F1004F02D1034EF16101E0CF
:100EA000014E7160F0BD00000000014002460020CC
:100EB00093680B400BB1012000E0002070474161B6
:100EC00070470161704700000148006870470000EA
:100ED0004000002001460A290CDA074830F81100CA
:100EE000012807D1054830F81100034A22F8110003
:100EF000012070470020FCE734040020200400207B
:100F00002DE9FE4F0020009001900290DFF890B094
:100F100000240CE0002507E03BF8021B5DF82500EB
:100F200008444DF825006D1C032DF5DB641C782C5E
:100F3000F0DB1C48406B00F150071A48D0F83480B1
:100F4000406B00F144091748406B00F13E0A002451
:100F500022E05DF824007821B0FBF1F630B227F8EA
:100F6000020B39F9021B761A3AF9021B642070430E
:100F700090FBF1F6C4EBC4010B4A02EB810031B2E5
:100F800001F0F5FDC4EBC401074A02EB810001F05A
:100F9000E7FD28F8020B641C032CDADBBDE8FE8FAA
:100FA00022070020A40000205000002000BFFEE720
:100FB00010B545F2555000F031F8022000F022F84B
:100FC00040F6FF7000F024F800F014F800F002F88A
:100FD00010BD00004CF6CC4001490860704700008D
:100FE000003000404AF6AA2001490860704700001E
:100FF000003000404AF6AA2001490860704700000E
:101000000030004001494860704700000030004057
:1010100001498860704700000030004001490860C5
:10102000704700000030004070B50948406B00F187
:101030000805002409E04FF40060A04081B2054893
:10104000FFF734FF25F8020B641C052CF3DB70BDA1
:10105000A4000020000C014010B50246002000232F
:10106000054800EB810304E0046824B21480921C5C
:10107000001D9842F8D310BD004000082DE9F04152
:1010800005460E460024A0460427FFF71DFE342027
:10109000FFF794FD0C48FFF797FD07460A4C04EB59
:1010A000860807E0B5F900102046FFF7D7FD074690
:1010B000AD1C241D444501D2042FF3D0FFF7C4FD1D
:1010C0003846BDE8F08100000040000838B5012135
:1010D0000C2000F05FFD0121084600F05BFD0121BE
:1010E0001B48FFF79BFE0220ADF8000001208DF8A1
:1010F000020010208DF8030069461648FFF703FE32
:10110000FC20ADF8000001208DF8020010208DF8C1
:10111000030069461048FFF7F6FD002406E0802032
:1011200040FA04F10C48FFF7CAFE641C062CF6DBFB
:101130004FF47840ADF8000001208DF802004820FF
:101140008DF8030069460448FFF7DDFD38BD000057
:101150000002300000080140000C014010B586B0CC
:1011600004460121042000F015FD0121880300F050
:1011700011FD4FF40070ADF8140018208DF8170021
:1011800003208DF8160005A91648FFF7BCFD4FF4A3
:101190008060ADF8140004208DF8170005A91148EF
:1011A000FFF7B1FD01940020ADF80800ADF80A008A
:1011B000ADF80C00ADF810000C20ADF80E0001A940
:1011C000094801F099F9252000F012F8012240F2B7
:1011D0002551054801F06BF90121034801F024F97C
:1011E00006B010BD000801400038014000BFFEE716
:1011F00038B504464FF4A06000F074FC8DF8004050
:1012000000208DF8010001208DF802008DF8030008
:10121000684600F02FFC38BD10B5B2B0044664211A
:101220006846FFF719FFBDF8B40018B1BDF8B40067
:10123000FE2802DD0120ADF8B400BDF8B60060283C
:1012400016D0BDF8B600C02812D0BDF8B600B0F573
:10125000C07F0DD0BDF8B600B0F5107F08D0BDF846
:10126000B600B0F5906F03D04FF49060ADF8B600C3
:10127000BDF8B800401C80B2ADF8B800BDF8BC00A5
:10128000642802DA6420ADF8BC00BDF8BC00B0F5FB
:10129000FA7F03DD4FF4FA70ADF8BC00BDF8BA0078
:1012A00041F28831884202DD0020ADF8BA00BDF875
:1012B000C000642802DA6420ADF8C000BDF8C000A8
:1012C000B0F5FA7F03DD4FF4FA70ADF8C000BDF859
:1012D000BE0041F28831884202DD0020ADF8BE0038
:1012E000BDF8C400642802DA6420ADF8C400BDF87B
:1012F000C400B0F5FA7F03DD4FF4FA70ADF8C40016
:10130000BDF8C20041F28831884202DD0020ADF80C
:10131000C200BDF8B40000B2A080BDF8B6006421E0
:1013200048432060BDF8BA00A060BDF8BC00E06092
:10133000BDF8BA00BDF8BC1008442061BDF8BC106F
:10134000480001F0D7FB6061606910B942F20F708C
:10135000E060BDF8BE00A062BDF8C000E062BDF86C
:10136000BE00BDF8C01008442063BDF8C01048009E
:1013700001F0C0FB6063606B10B942F20F70E06275
:10138000BDF8C200A061BDF8C400E061BDF8C200B4
:10139000BDF8C41008442062BDF8C410480001F034
:1013A000A9FB6062606A10B942F20F70E061E26A04
:1013B000616B01EB4201A1F1C800C8226946FEF74A
:1013C000D3FE2068B0F5164F16D006DCB0F5165FD8
:1013D0000AD0B0F5964F1BD10AE0B0F5614F0FD09F
:1013E000B0F5E13F14D10FE00F2084F8440213E080
:1013F0000A2084F844020FE0052084F844020BE040
:10140000052084F8440207E0052084F8440203E044
:101410000A2084F8440200BF00BF002084F8400284
:1014200084F84302A4F84602012084F8480204F13B
:101430003800C4F8380204F59C70C4F83C0232B09D
:1014400010BD70B504460D4604F50E742068407852
:1014500040F0800021684870607B2168887003211B
:101460002068FFF737FA06462168CE7030122168EF
:1014700008712168A4F50E740522284601F0C2F80F
:1014800070BD70B504460E4640F22551304600F05E
:10149000E4FFD8B1304601F09BF8C5B294F843029E
:1014A00088B1B4F90400A84205D094F8400210B9FC
:1014B000002084F8430294F84012481C84F840024B
:1014C000D4F83C0245540020A4F8460240F22771AB
:1014D000304600F0C2FF28B1002240F227713046AA
:1014E00000F0E5FF70BD70B504460D4604F50E74BE
:1014F000A27A921ED1B22068FFF7ECF90646A07AD4
:10150000801E226816543112A07A401E226811549F
:10151000A27A2168A4F50E74284601F073F870BD14
:101520002DE9FE4F0446D4F83862707840B17078E7
:10153000062802DD70780F2802DB7078102802DDA3
:101540000120BDE8FE8F94F84102FA2803DC94F8EC
:101550004102082801DA0320F3E794F84102801ED3
:10156000C1B23046FFF7B6F9029094F84102801EEE
:10157000315C94F84102401E305C41EA0021019147
:10158000DDE90110884201D00320DAE7F078B17874
:1015900040EA01277079317940EA01287078012802
:1015A00002D0707802284FD1B8F5707F01DD03209A
:1015B000C7E7A068B84201DD0220C2E707EB0800D8
:1015C0002169884201DD0220BBE7B51C08F0070055
:1015D00010B94FEAE80002E04FEAE800401C05F8C5
:1015E000010B2089381A80B200904FF0000BDA46C8
:1015F00022E06169009831F8100030B128780121AB
:1016000001FA0BF10843287005E02878012101FA5E
:101610000BF1884328700BF10100C0B28346082803
:1016200002DB4FF0000B6D1C0098401C80B2009054
:101630000AF101001FFA80FAC245DADBB078401DDA
:1016400084F8420200207CE77078052824D1A06845
:10165000B84201DD022074E72069B84201DC0220B3
:101660006FE7B8F57F4F06D10120A268BA1A616909
:1016700021F812000BE0B8F1000F06D10020A2689B
:10168000BA1A616921F8120001E0032059E7082025
:1016900084F84202002054E770780F2834D1A06803
:1016A000B84201DD02204CE707EB080021698842BF
:1016B00001DD022045E74FF0000BF51DA168791A06
:1016C000606900EB4109DA4617E02878012101FA48
:1016D0000BF1084008B1012000E0002029F8020BBE
:1016E0000BF10100C0B28346082802DB4FF0000B6B
:1016F0006D1C0AF101001FFA80FAC245E5DB0820E3
:1017000084F8420200201CE77078032834D1B8F135
:101710007D0F00DD15E7A06AB84201DD022010E769
:1017200007EB0800216B884201DD022009E7B51CA8
:10173000A16A791A606B00EB41094FEA4860000E1C
:1017400005F8010B4FF0000A0EE0B9F80000000A9E
:1017500005F8010B99F8000005F8010B09F10209E1
:101760000AF101001FFA80FAC245EEDBB078401D95
:1017700084F842020020E4E67078042835D1B8F1FC
:101780007D0F01DD0320DCE6A069B84201DD022007
:10179000D7E607EB0800216A884201DD0220D0E687
:1017A000B51CA169791A606A00EB41094FEA4860EB
:1017B000000E05F8010B4FF0000A0EE0B9F800002A
:1017C000000A05F8010B99F8000005F8010B09F172
:1017D00002090AF101001FFA80FAC245EEDBB07877
:1017E000401D84F842020020ABE67078062818D12C
:1017F000A06AB84201DD0220A3E6206BB84201DCFA
:1018000002209EE60FFA88F0A26ABA1A616B21F8EC
:101810001200012084F84802082084F842020020C7
:101820008FE67078102831D1A06AB84201DD02201D
:1018300087E607EB0800216B884201DD022080E685
:10184000F51DA16A791A606B00EB41094FF0000A9F
:1018500012E015F8011B080200B2A9F8000015F803
:10186000010BB9F900100843A9F8000009F10209B9
:101870000AF101001FFA80FAC245EADB012084F870
:101880004802082084F8420200205AE6012058E667
:1018900010B5044694F8480258B1E26A616B01EB56
:1018A0004201A1F1C8006421FFF7E8FB002084F8A1
:1018B000480210BD2DE9F04104460F46B4F8460237
:1018C00094F84412884239DD04F50E742668606885
:1018D00020606660207A6072002020720120E07231
:1018E000607AA4F50E74082825DBD4F83802007855
:1018F000B4F9041088421ED1FFF7E6FA05462046E7
:10190000FFF70EFE84F8450294F8450220B13946EF
:101910002046FFF796FD03E039462046FFF7E3FD3A
:10192000B4F84C02281A01B2E06A401E626B22F839
:101930001010C4F84C520020A4F84602BDE8F08113
:101940000348B0F84602401C0149A1F8460270471E
:10195000A400002010B50248FFF79AFF10BD000058
:10196000A400002000B599B01A48FFF755FC1949AA
:101970000868FFF7F3FB17480368B0F9042016A1C5
:10198000684600F06BFE69461B4800F051FE1148A6
:10199000C3681AA18268684600F060FE694616486E
:1019A00000F046FE0B48C36A1CA1826A684600F03C
:1019B00055FE6946104800F03BFE0648C3691FA16A
:1019C0008269684600F04AFE69460B4800F030FE26
:1019D00019B000BDA40000200D0A53746174696F32
:1019E0006E204E6F3A2025642C204261756472612E
:1019F00074653A2025640000003801400D0A436FE9
:101A0000696C205374617274206164723A202534C9
:101A1000642C204C656E3A20253464000D0A526512
:101A20006720205374617274206164723A202534F7
:101A3000642C204C656E3A20253464000D0A526FE8
:101A40006D20205374617274206164723A202534D1
:101A5000642C204C656E3A202534640010B5024990
:101A60000248FFF727FF10BD00380140A400002006
:101A70007047000070B5002100230F22C47804B322
:101A8000154C246804F4E064C4F5E064210AC1F153
:101A90000403CA40447804FA03F1847814402143D3
:101AA00009010E4C0678A155047804F01F050124A5
:101AB000AC4005786D11AD0005F1E025C5F8004199
:101AC00009E0047804F01F050124AC40044D0678B9
:101AD000761145F8264070BD0CED00E000E400E012
:101AE00080E100E002490143024A116070470000B2
:101AF0000000FA050CED00E070B50D48406B00F1F8
:101B00001405002410E035F8021B31B9802040FA9A
:101B100004F10848FFF7D3F905E0802040FA04F10A
:101B20000448FFF7CEF9641C062CECDB70BD000006
:101B3000A4000020000C0140704700000146002076
:101B4000034A506820F4404008435060704700004A
:101B50000010024029B1064A52690243044B5A61FF
:101B600004E0034A52698243014B5A617047000006
:101B70000010024029B1064AD2690243044BDA61DF
:101B800004E0034AD2698243014BDA6170470000E6
:101B90000010024029B1064A92690243044B9A613F
:101BA00004E0034A92698243014B9A617047000046
:101BB0000010024030B500210022002400232D4DEA
:101BC0006D6805F00C0121B1042905D0082923D145
:101BD00005E0294D056022E0274D05601FE0254DF9
:101BE0006D6805F47012234D6D6805F4803402258C
:101BF00005EB92421CB9214D554305600BE01D4D8C
:101C00006D6805F400351DB11C4D5543056002E0BB
:101C1000194D5543056002E0174D056000BF00BF38
:101C2000144D6D6805F0F0010909154D6B5C0568F0
:101C3000DD4045600F4D6D6805F4E061090A104D07
:101C40006B5C4568DD4085600A4D6D6805F4605148
:101C5000C90A0B4D6B5C4568DD40C560054D6D687C
:101C600005F44041890B074D6B5CC568B5FBF3F586
:101C7000056130BD0010024000127A0000093D00ED
:101C800014000020240000202DE9FC5F24213D48A1
:101C90000068801C00F0ACFE83463A48006890F86B
:101CA00026003849096891F8271040EA0120019080
:101CB0000198834501D0BDE8FC9F32480068D0F808
:101CC00006A03148BAFBF0F000B23049496B0885F4
:101CD0002C480068D0F80A0000900098FEF764FBDA
:101CE000804600222A4BFEF751FA0646294A2A4B23
:101CF000FEF7BEFA0446FEF76AFB00900098FEF776
:101D000026FB00B22149496B48851E480068D0F87F
:101D10000E0000900098FEF747FB804600221C4B07
:101D2000FEF734FA06461B4A1B4BFEF7A1FA04469F
:101D3000FEF74DFB00900098FEF709FB00B2134937
:101D4000496B88850F480068D0F812000090009811
:101D5000FEF72AFB064600220D4BFEF717FA8046D7
:101D60000C4A0D4BFEF784FA0446FEF730FB009058
:101D70000098FEF7ECFA00B20449496BC88500BF31
:101D800099E700002800002040420F00A400002036
:101D900000209C401F85EB51B81E09402DE9F84FEB
:101DA0003E2163480068801C00F022FE82466048A5
:101DB000006890F840005E49096891F8411040EAD7
:101DC000012BDA4501D0BDE8F88F59480068C0689A
:101DD00000900098FEF7E8FA06460022554BFEF701
:101DE000D5F90446FEF7F3FA00900098FEF7AFFA33
:101DF00000B25149496B08864D480068006900905F
:101E00000098FEF7D1FA064600224A4BFEF7BEF9CB
:101E10000446FEF7DCFA00900098FEF798FA00B24C
:101E20004549496B488642480068406900900098DF
:101E3000FEF7BAFA064600223E4BFEF7A7F9044623
:101E4000FEF7C5FA00900098FEF781FA00B23A4911
:101E5000496B888636480068806900900098FEF7D4
:101E6000A3FA80460022354BFEF790F90646344A25
:101E7000344BFEF7FDF90446FEF7A9FA00900098EE
:101E8000FEF765FA00B22C49496BC88628480068FD
:101E9000C06900900098FEF787FA80460022274B21
:101EA000FEF774F90646264A264BFEF7E1F904468A
:101EB000FEF78DFA00900098FEF749FA00B21E492D
:101EC000496B08871A480068006A00900098FEF77E
:101ED0006BFA80460022194BFEF758F90646184A5D
:101EE000184BFEF7C5F90446FEF771FA009000980A
:101EF000FEF72DFA00B21049496B48870C4800687C
:101F0000406A00900098FEF74FFA064600220E4BFA
:101F1000FEF73CF90446FEF75AFA00900098FEF7E7
:101F20002FFA00B20449496B888700BF4BE70000D5
:101F30002C00002000408F40A400002000209C4086
:101F40001F85EB51B81E09400000244010B5084819
:101F5000084908606430084908606430074908602F
:101F600000F03EFA4FF4E13000F056F910BD0000E9
:101F7000F4020020280000202C0000203000002067
:101F800010B50848007820B9FFF77EFE012005490A
:101F900008700548007820B9FFF700FF01200249CA
:101FA000087010BD3400002035000020704710B5C7
:101FB00000F002F810BD00000CB500200190009068
:101FC0003348006840F480303149086000BF304831
:101FD000006800F4003000900198401C01900098C7
:101FE00018B90198B0F5A06FF1D12948006800F444
:101FF000003010B10120009001E000200090009816
:10200000012843D12348006840F0100021490860AE
:102010000846006820F0030008600846006840F0A9
:10202000020008601A48406819494860084640683C
:1020300048600846406840F4806048600846406850
:1020400020F47C1048600846406840F4E81048607E
:102050000846006840F08070086000BF0C480068C7
:1020600000F000700028F9D00948406820F0030013
:10207000074948600846406840F00200486000BFD9
:102080000348406800F00C000828F9D10CBD00009E
:1020900000100240002002400A2806DA4A1C034BC6
:1020A00023F81020024B23F8102070472004002052
:1020B0003404002010B5FFF743FC0F480068401CB3
:1020C0000D4908600D48006820B90C480068401EA2
:1020D0000A49086000240CE0094830F8140001287F
:1020E00006DD074830F81400401E054921F81400A9
:1020F000641C0A2CF0DB10BD400000203C000020D6
:102100003404002070B52149096842F21073B1FB14
:10211000F3F2B2F1807F01D301211DE022F07F4173
:10212000491E4FF0E023596159170F23002907DAA0
:102130001C07260E164C01F00F052D1F665503E0F7
:102140001C07250E134C655400BF00214FF0E023FF
:10215000996107211961002109B100BFFEE74FF025
:10216000E021096961F001014FF0E02211610020D6
:1021700009E00021084A22F81010084A22F810103D
:10218000074A1154401C0A28F3DB70BD00000020F0
:1021900018ED00E000E400E02004002034040020FA
:1021A0004804002010B51348006840F001001149B0
:1021B000086008464068104908400E4948600846D3
:1021C00000680E4908400B4908600846006820F482
:1021D000802008600846406820F4FE0048604FF404
:1021E0001F008860FFF7E3FE4FF0006004490860BD
:1021F00010BD0000001002400000FFF8FFFFF6FED7
:1022000008ED00E010B502490248FFF73AF910BDA9
:1022100000380140A400002010B586B0044601211A
:102220000420FFF7B7FC01214804FFF7A3FC0121BC
:102230000846FFF7AFFC0420ADF8040003208DF83A
:10224000060018208DF8070001A91548FEF75BFD70
:102250000820ADF8040004208DF8070001A91048FB
:10226000FEF751FD02940020ADF80C00ADF80E0011
:10227000ADF81000ADF814000C20ADF8120002A962
:10228000084800F039F9012240F22551054800F0D4
:102290000EF90121034800F0C7F806B010BD000098
:1022A000000801400044004070B540F22551444808
:1022B00000F0D3F8002876D040F22551404800F0D5
:1022C000A4F83F4800F084F9C4B23E48008858B9E9
:1022D000FF2C68D13B4801880088401C394A108097
:1022E0003948006844545EE03648008801280FD120
:1022F0005A2C09D1334801880088401C314A10808B
:102300003148006844544EE000202E4908804AE0DD
:102310002C48008805280ED12B480068007940EA37
:10232000042009302949087008460078642802DD35
:10233000002024490880234801880088401C214A45
:1023400010802148006844541046008806282ADD81
:10235000104600881D490978884224DB332C22D19D
:1023600019480068807806280AD117480568184877
:102370000068154908601648056000201549087076
:1023800011480068807803280AD10F480568124870
:1023900000680D4908601048056000200F4908706A
:1023A00000200849088040F22771054800F055F8E0
:1023B00028B1002240F22771014800F078F870BD82
:1023C000004400403600002030000020380000208B
:1023D00028000020340000202C00002035000020C0
:1023E00008B54FF4C060FFF77DFB26208DF8000094
:1023F00001208DF8010000208DF8020001208DF8E9
:1024000003006846FFF736FB08BD10B50022002325
:1024100040F66A14A14200D100BF0A120124944080
:10242000A3B2DC43048010BD21B1828942F4005282
:10243000828104E082894DF6FF731A4082817047E1
:1024400002460020B1F5007F00D100BF13880B4089
:102450000BB1012000E00020704770B50246002457
:1024600000230025002040F66A16B14200D100BFCB
:10247000C1F3421501F01F03012606FA03F3012DF3
:1024800002D19689334006E0022D02D1168A3340EC
:1024900001E0968A33400C12012606FA04F41688ED
:1024A000344013B10CB1012000E0002070BDF0B544
:1024B0000346002400260025002040F66A17B94292
:1024C00000D100BF1846C1F3421401F01F060127D6
:1024D00007FA06F5012C01D10C3004E0022C01D1E1
:1024E000103000E014301AB107682F43076002E093
:1024F0000768AF430760F0BD2DE9F04786B0054699
:102500000E460024A24600BFA1460027B08900B1B4
:1025100000BF2F462C8A4CF6FF700440F08804431D
:102520002C82AC894EF6F3100440B0883189084300
:10253000718908430443AC81AC8A4FF6FF400440E4
:10254000B0890443AC8201A8FFF734FB1F488742DF
:1025500002D1DDF810A001E0DDF80CA0A88900F49C
:10256000004040B10AEBCA0000EB0A103168490094
:10257000B0FBF1F807E00AEBCA0000EB0A10316883
:102580008900B0FBF1F86420B8FBF0F004012009E9
:10259000642101FB1089A88900F4004040B1322079
:1025A00000EBC900B0FBF1F000F00700044308E0C5
:1025B000322000EB09106421B0FBF1F000F00F00B5
:1025C00004432C8106B0BDE8F087000000380140CC
:1025D00001468888C0F308007047C1F30802828072
:1025E000704700BFFEE770B504460D4629462046F9
:1025F000FFF7F3FF00BF80212046FFF721FF0028EF
:10260000F9D070BD70B506460C4615460BE014F8BF
:10261000011B3046FFF7E1FF00BF80213046FFF786
:102620000FFF0028F9D02800A5F10105EFD170BDFA
:1026300070B506460C46002500BF615D3046FFF7C9
:10264000D2FF6D1C605D0028F7D100BF40213046ED
:10265000FFF7F6FE0028F9D070BD00000FB4084B5C
:1026600010B504A902AA039800F01CF8044602A9B8
:10267000002000F0B8F9204610BC5DF814FB000003
:10268000E729000802E008C8121F08C1002AFAD191
:1026900070477047002001E001C1121F002AFBD1E2
:1026A000704700002DE9FF4F8BB088460546002695
:1026B00006E025280BD0DDE90D1290476D1C761C35
:1026C00028780028F5D10FB03046BDE8F08F0024FF
:1026D000A146A2460122AE4900E0044315F8013F9D
:1026E000203B02FA03F00842F7D128782A2810D0BC
:1026F0006FF02F022878A0F13001092915D809EBD5
:10270000890102EB410144F0020400EB01096D1C58
:10271000F0E758F8041B5FEA010903D544F40054BC
:10272000C9F1000944F002046D1C28782E2817D145
:1027300015F8010F44F004042A280ED06FF02F0280
:102740002878A0F1300109290AD80AEB8A0102EBA6
:10275000410100EB010A6D1CF2E758F804AB6D1C57
:1027600028786C280FD006DC4C2817D068280DD0AC
:102770006A2814D104E0742810D07A280FD10DE013
:1027800044F400140AE044F4801401E044F44014DA
:102790006978814202D104F580146D1C6D1C287883
:1027A000692865D006DC00288DD0632827D06428EE
:1027B00006D15DE06E2808D073282AD0752877D01E
:1027C000DDE90D129047761CE0E0C4F302500228C8
:1027D00009D003280DD0D8F8001004280DD00E60C1
:1027E00008F10408D2E0D8F80010F217C1E900623D
:1027F000F6E7D8F800100E80F2E70E70F0E718F850
:10280000041B8DF8001000208DF80100EB4601201C
:1028100003E058F804BB4FF0FF3061074FF00007AA
:1028200001D40AE07F1C57450DDA8742FADB1BF81A
:1028300007100029F6D106E07F1C8742FCDB1BF85D
:1028400007100029F8D1DDE90D23A9EB0700814627
:10285000214600F0B1F83044C61904E0DDE90D125C
:102860001BF8010B90477F1EF8D22146484688E0AE
:1028700058F8040BC4F302514FF00A0B032900D19E
:1028800000B2042900D140B2002802DA40422D21D2
:1028900002E0210505D52B218DF82410012104E04B
:1028A00006E0E10710D02021F6E708AF089113E019
:1028B00058F8040BC4F302514FF00A0B032900D15E
:1028C00080B2042900D1C0B20021EEE75946FDF7DD
:1028D0009AFD303107F8011D0028F7D1ADEB070054
:1028E00000F1200B600702D524F4803401E04FF0A2
:1028F000010ADA4502DDAAEB0B0000E00020824667
:1029000000EB0B0108980144A9EB01000A90E003D9
:1029100006D4DDE90D2321460A9800F04DF806445F
:102920004FF0000908E009A911F80900DDE90D12CE
:10293000904709F10109761C08998945F3DBE0030A
:102940000CD5DDE90D2321460A9800F035F8064440
:1029500004E0DDE90D1230209047761CBAF1000149
:10296000AAF1010AF5DC05E0DDE90D1217F8010B0B
:102970009047761CBBF10001ABF1010BF4DC0A9827
:102980002146DDE90D2300F005F806446D1C97E6AD
:10299000092801002DE9F041044600251E4617468E
:1029A000880404D405E039462020B0476D1C641E1D
:1029B000F9D52846BDE8F0812DE9F041044600250F
:1029C0001E469046C80301D5302700E02027880422
:1029D00004D505E041463846B0476D1C641EF9D564
:1029E0002846BDE8F0810A68531C0B6010707047E0
:1029F000F0B502460B46164648F208470020002173
:102A000014E016F801C08CEA0000002508E000F090
:102A10000104401004B1784005F1010C0CF0FF05F1
:102A2000082DF4DB01F1010C1FFA8CF19942E8DB6F
:102A3000F0BD0000FFF766FBFEF748FBFEF792FFD4
:102A4000FFF784FAFDF7F2FD022027490860C8214C
:102A50000120FFF721FB4FF4FA710220FFF71CFB66
:102A600014210420FFF718FB4FF47A710320FFF7BD
:102A700013FBFEF79DFA1D4800F091F81B481C302F
:102A800000F08DF81948383000F089F82BE0FEF797
:102A9000E5FFFFF775FA0120FEF71CFA18B1FFF702
:102AA0002BF8FEF7C1FA0220FEF714FA48B10E48DF
:102AB000001F006880F002000B49091F0860FEF744
:102AC00091FA0320FEF706FA08B1FEF743FF04204F
:102AD000FEF700FA38B10648006820B1FEF710FA98
:102AE000002003490860D2E7100801405000002090
:102AF00044000020F0B50B30154D20F007010024F4
:102B0000144A0FE003688B420BD38B4205D95E1A3F
:102B100043184768C3E9006700E04368136002C0D8
:102B200004E0021D10680028ECD12046002802D1E4
:102B3000286808B10020F0BD064A07481060074A1F
:102B4000121A22F00702C0E9002401202860D7E70A
:102B50004C00002048000020FC090020F82900203B
:102B600001460A22886990FBF2F000B2704710B566
:102B7000021D046832F9142083699A1A82618269FD
:102B80000A448261021D036822F813100268521C75
:102B90000A2392FBF3F403FB1422026010BD0A2106
:102BA0000022026003E00023021D22F811300A0017
:102BB000A1F10101F7D1826170470000C1C081C15C
:102BC000400101C3C003800241C201C6C0068007A4
:102BD00041C70005C1C581C4400401CCC00C800DB3
:102BE00041CD000FC1CF81CE400E000AC1CA81CBBA
:102BF000400B01C9C009800841C801D8C01880191C
:102C000041D9001BC1DB81DA401A001EC1DE81DF21
:102C1000401F01DDC01D801C41DC0014C1D481D5E2
:102C2000401501D7C017801641D601D2C0128013BB
:102C300041D30011C1D181D0401001F0C0308031AA
:102C400041F10033C1F381F240320036C1F681F721
:102C5000403701F5C035803441F4003CC1FC81FDB2
:102C6000403D01FFC03F803E41FE01FAC03A803B3B
:102C700041FB0039C1F981F840380028C1E881E9F9
:102C8000402901EBC02B802A41EA01EEC02E802FA3
:102C900041EF002DC1ED81EC402C01E4C0248025E2
:102CA00041E50027C1E781E640260022C1E281E339
:102CB000402301E1C021802041E001A0C06080618B
:102CC00041A10063C1A381A240620066C1A681A7A1
:102CD000406701A5C065806441A4006CC1AC81ADB2
:102CE000406D01AFC06F806E41AE01AAC06A806BBB
:102CF00041AB0069C1A981A840680078C1B881B919
:102D0000407901BBC07B807A41BA01BEC07E807F22
:102D100041BF007DC1BD81BC407C01B4C0748075E1
:102D200041B50077C1B781B640760072C1B281B3B8
:102D3000407301B1C071807041B00050C190819169
:102D400040510193C053805241920196C056805722
:102D500041970055C19581944054019CC05C805DB1
:102D6000419D005FC19F819E405E005AC19A819B38
:102D7000405B0199C059805841980188C0488049FA
:102D80004189004BC18B818A404A004EC18E818FA0
:102D9000404F018DC04D804C418C0044C1848185E1
:102DA00040450187C047804641860182C04280433A
:102DB00041830041C181818040400000DC2D00083A
:102DC0000000002050000000842600082C2E00087F
:102DD00050000020A82D00009426000800A24A04FC
:102DE00000000000000000000102030406070809BB
:102DF00000000000010203040102030406070809A1
:102E000002040608000000000000000000000000AE
:102E100001010000000000000000000000000000B0
:0C2E2000000000000000000000000000A6
:0400000508000131BD
:00000001FF
