:020000040800F2
:10000000B0100020450100083D1400087D0D0008D7
:10001000790F000843050008D31D00080000000008
:10002000000000000000000000000000E9160008C9
:10003000E10700080000000065150008F11700083E
:100040005F0100085F0100085F0100085F01000810
:100050005F0100085F010008E30700085F01000876
:100060005F0100085F0100085F01000879050008D2
:100070005F0100085F0100085F0100085F010008E0
:100080005F0100085F0100085F0100085F010008D0
:100090005F0100085F0100085F0100085F010008C0
:1000A0005F0100085F0100085F0100085F010008B0
:1000B0005F0100085F0100085F0100085F010008A0
:1000C0005F0100085F0100085F0100085F01000890
:1000D0005F0100088D190008991A00085F010008E7
:1000E000F50700085F0100085F0100085F010008D4
:1000F0005F0100085F0100085F0100085F01000860
:100100005F0100085F0100085F0100085F0100084F
:100110005F0100085F0100085F0100085F0100083F
:100120005F0100085F0100085F0100085F0100082F
:10013000DFF80CD000F040F800480047C91F000865
:10014000B01000200648804706480047FEE7FEE75B
:10015000FEE7FEE7FEE7FEE7FEE7FEE7FEE7FEE777
:100160002D1900083101000840EA01039B0703D064
:1001700009E008C9121F08C0042AFAD203E011F8E6
:10018000013B00F8013B521EF9D2704730B50B46D7
:10019000014600202022012409E021FA02F59D42B7
:1001A00005D303FA02F5491B04FA02F52844151E8B
:1001B000A2F10102F1DC30BD064C074D06E0E0681B
:1001C00040F0010394E8070098471034AC42F6D39E
:1001D000FFF7B2FF9C220008BC22000870B58C1803
:1001E00010F8015B15F0070301D110F8013B2A114B
:1001F00006D110F8012B03E010F8016B01F8016B38
:100200005B1EF9D12B0705D40023521E0DD401F833
:10021000013BFAE710F8013BCB1A921C03E013F8FC
:10022000015B01F8015B521EF9D5A142D8D3002031
:1002300070BD000008B50121084601F0A1F90121B7
:10024000480201F0BDF90121042001F0B9F91020A4
:10025000ADF8000000208DF8030069460F4800F05B
:10026000C6FB0121042001F0ABF92020ADF800000D
:1002700000208DF803006946084800F0B8FB012112
:10028000042001F09DF94020ADF8000000208DF819
:1002900003006946014800F0AAFB08BD00080140C0
:1002A00010B500F08AFAFFF7C5FF00F001F810BDA5
:1002B00000B591B03E4800F09DF93E4806903E489A
:1002C0000790002008904FF49670099000200A9043
:1002D00080200B9040000C9080000D9020200E900C
:1002E00000020F900020109006A9314800F047FA54
:1002F000012202212E4800F039FA022000F060F9B4
:1003000001212B4800F06AF90020019001208DF8AE
:1003100008008DF809004FF460200390002004903D
:1003200003208DF8140001A922484C3800F070F821
:100330004FF4404001F018F90723012204211D4821
:100340004C3800F08DF807230222052119484C385B
:1003500000F086F807230322062116484C3800F0E7
:100360007FF8012113484C3800F033F8012111487F
:100370004C3800F023F80F484C3800F0CDF800BF9F
:100380000C484C3800F03AF80028F9D109484C38AC
:1003900000F0D2F800BF07484C3800F025F80028DC
:1003A000F9D1012103484C3800F0BBF811B000BD71
:1003B000080002404C240140FC07002021B1826863
:1003C00042F00102826003E0826822F00102826052
:1003D000704721B1826842F48072826003E08268D3
:1003E00022F4807282607047014600208A6802F021
:1003F00004020AB1012000E00020704701460020FD
:100400008A6802F008020AB1012000E0002070476B
:1004100030B502460020002350680F4C20400D7973
:100420000C6844EA05242043506090680B4C20403F
:10043000D1E902542C434D7944EA450420439060AD
:10044000D06A20F470000C7C641EE4B2234340EABE
:100450000350D06230BD0000FFFEF0FFFDF7F1FF5A
:10046000F0B504460D4600200021092D11DDE0689D
:10047000A5F10A0606EB4607072606FA07F18843A8
:10048000A5F10A0606EB460603FA06F10843E0600A
:100490000CE0206905EB4507072606FA07F18843BB
:1004A00005EB450603FA06F108432061072A0FDA37
:1004B000606B561E06EB86071F2606FA07F1884377
:1004C000561E06EB860605FA06F10843606322E035
:1004D0000D2A0FDA206BD61F06EB86071F2606FAB9
:1004E00007F18843D61F06EB860605FA06F1084396
:1004F000206310E0E06AA2F10D0606EB86071F26D6
:1005000006FA07F18843A2F10D0606EB860605FA06
:1005100006F10843E062F0BD816841F008018160A6
:10052000704721B1826842F4A002826003E08268D1
:1005300022F4A00282607047816841F0040181606A
:10054000704700BFFEE7000030B502460B464FF68D
:10055000FF7008E012F8014B4440E1B20012054C74
:1005600034F8114060401C00A3F10105EBB2F1D159
:1005700030BD00009C20000810B5022000F0E0F81B
:10058000012814D1022000F01BF80948006870B956
:100590004FF4167207490848FFF7E6FD01200449A9
:1005A00008600648008C401C00B20449088410BD55
:1005B0005C010020FC070020540A0020600100209C
:1005C00000F0805111B10349086001E00249486020
:1005D00070470000040402400000024021B102689C
:1005E00042F00102026004E002684FF6FE731A4016
:1005F0000260704701684FF6FE72114001600021F1
:10060000016041608160C1604B49884208D14A491C
:100610000839496841F00F01474A083A51608AE0B9
:1006200045491431884208D143490839496841F0A5
:10063000F001414A083A51607DE03F492831884243
:1006400008D13D490839496841F470613A4A083A8D
:10065000516070E038493C31884208D13649083948
:10066000496841F47041344A083A516063E03249C4
:100670005031884208D130490839496841F4702125
:100680002D4A083A516056E02B496431884208D11E
:1006900029490839496841F47001274A083A5160EC
:1006A00049E025497831884208D123490839496809
:1006B00041F07061204A083A51603CE01F4988428D
:1006C00006D1011F096841F00F01021F116032E0DD
:1006D0001A491431884208D11849091F096841F0A4
:1006E000F001164A121F116025E014492831884292
:1006F00008D11249091F096841F470610F4A121F9D
:10070000116018E00D493C31884208D10B49091F9E
:10071000096841F47041094A121F11600BE0074952
:100720005031884207D10549091F096841F47021F9
:10073000024A121F1160704708000240080402407C
:1007400001460020002201F0805313B1054B1A68C6
:1007500001E0054B1A6802EA01030BB1012000E039
:100760000020704700040240000002401AB10368F4
:100770000B43036002E003688B430360704710B5CE
:100780000022026847F6F0739A430C6A8B68234391
:100790000C6923434C6923438C692343CC6923436D
:1007A0004C6A23438C6A23431A430260CB6843603C
:1007B0000B6883604B68C36010BD08B54FF4C06020
:1007C00000F076FE0B208DF8000001208DF801006E
:1007D0008DF802008DF80300684600F031FE08BD78
:1007E000704710B5012000F017F810B1012000F09B
:1007F0000DF810BD10B54FF4005000F00DF818B111
:100800004FF4005000F002F810BD000001490860EC
:100810007047000014040140014600200022074BED
:100820001B6803EA0102054B14331B680B4013B12C
:100830000AB1012000E000207047000000040140E0
:1008400070B5054615480068407840F080001349AF
:100850000968487011480068857003210F480068D6
:10086000FFF772FE06460D490968CE7030120B493B
:100870000968087100240DE008480068015D084817
:1008800001F0A3FA00BF4021054801F0D1F900288A
:10089000F9D0641C052CEFDB70BD00003401002092
:1008A000003801400149C860704700000020024044
:1008B00030B5044604254FF4302000F085F8054695
:1008C000042D17D10C48006940F002000A49086164
:1008D00008464461006940F0400008614FF4302050
:1008E00000F072F805460448006941F6FD710840C1
:1008F00001490861284630BD0020024004200B4910
:10090000C96801F0010109B101200EE00749C96879
:1009100001F0040109B1022007E00449C96801F0AF
:10092000100109B1032000E00420704700200240BC
:100930000348006940F080000149086170470000E9
:100940000020024078B506460C46042500200090A1
:10095000E80200F039F80546042D24D11348006957
:1009600040F00100114908613480E80200F02CF8E1
:100970000546042D10D1B01C0090200C0099088071
:10098000E80200F021F805460848006941F6FE71CA
:1009900008400649086106E00448006941F6FE7116
:1009A000084002490861284678BD00000020024046
:1009B000024803494860034848607047230167457F
:1009C00000200240AB89EFCD00B502460423FFF7BB
:1009D00095FF034603E0FFF791FF0346521E012BEC
:1009E00001D1002AF7D102B90523184600BD2DE92F
:1009F000F0410246002500260020002300240027A5
:100A000091F803C00CF00F0591F803C00CF0100C26
:100A1000BCF1000F03D091F802C04CEA050591F833
:100A200000C0BCF1000F31D0146800202BE04FF063
:100A3000010C0CFA00F3B1F800C00CEA03069E4268
:100A400020D183004FF00F0C0CFA03F7BC4305FADA
:100A500003FC4CEA040491F803C0BCF1280F06D152
:100A60004FF0010C0CFA00FCC2F814C00AE091F837
:100A700003C0BCF1480F05D14FF0010C0CFA00FC8B
:100A8000C2F810C0401C0828D1D31460B1F800C0CF
:100A9000BCF1FF0F34DD546800202EE000F1080C9B
:100AA0004FF0010808FA0CF3B1F800C00CEA030695
:100AB0009E4221D183004FF00F0C0CFA03F7BC4388
:100AC00005FA03FC4CEA040491F803C0BCF1280FBA
:100AD00005D100F1080C08FA0CF8C2F8148091F85E
:100AE00003C0BCF1480F07D100F1080C4FF001081A
:100AF00008FA0CF8C2F81080401C0828CED35460C5
:100B0000BDE8F081F0B50A4600230024002100254D
:100B100000F00046B6F1004F02D11D4EF16901E030
:100B20001B4E7168C0F3034583B200F44016B6F55E
:100B3000401F08D121F07061154E766826F070666E
:100B4000134F7E6012E000F48016B6F5801F06D1C8
:100B5000032606FA05F4A14341F0706106E0460D54
:100B6000360103FA06F6B14341F0706122B1460D39
:100B7000360103FA06F6314300F00046B6F1004FA5
:100B800002D1034EF16101E0014E7160F0BD000041
:100B9000000001400246002093680B400BB1012089
:100BA00000E000207047416170470161704700001C
:100BB00001460A2907DA0548405C20B10020034AB3
:100BC0005054012070470020FCE70000E807002097
:100BD0002DE9FE434FF0000CCDF800C0CDF804C065
:100BE000CDF808C001250026002700245F4A002018
:100BF00012E000210AE032F8023B5DF821C09C447B
:100C00004DF821C001F1010C1FFA8CF10329F2DB30
:100C100000F1010C1FFA8CF06428EADB00209FE051
:100C20005DF820C04FF06408BCFBF8FCDFF84081A1
:100C300038F81080ACEB080C0FFA8CF800F1280C97
:100C4000DFF8309129F81C80C84638F91CC0BCF187
:100C5000000F05DA4FF0000800F1280C29F81C807D
:100C6000012124E0DFF8108100F1010C08EB8C1C5D
:100C70005CF8218000F1280CDFF8F89039F91CC0ED
:100C8000E04510DDDFF8F08000F1010C08EB8C1876
:100C9000A1F1010C58F82C8000F1280C39F91CC086
:100CA000E04500DC05E001F1010C1FFA8CF1102990
:100CB000D8DB00BF10290DDB01250026DFF8B8C006
:100CC000DCF83C40E04600F1010C08EB8C1CDCF841
:100CD0003C702CE0DFF8A08000F1010C08EB8C1CCC
:100CE0005CF82180DFF8909000F1010C09EB8C1981
:100CF000A1F1010C59F82CC0A8EB0C05DFF878C065
:100D00005CF82180A1F1010CDFF86C9059F82CC03F
:100D1000A8EB0C06A1F1010CC84658F82C4000F1D4
:100D2000010C08EB8C18A1F1010C58F82C7000F1A3
:100D3000280CDFF8408038F91CC0ACEB070C0CFB2A
:100D400006FC9CFBF5FC64444FF0640C94FBFCFC3B
:100D50000FFA8CFC28F810C000F1010C1FFA8CF07F
:100D60000328FFF65DAFBDE8FE830000540A0020B3
:100D700028000020600100203000002000BFFEE7B6
:100D80004AF6AA2001490860704700000030004080
:100D900010B500240BE04FF40060A04081B205487C
:100DA000FFF7F8FEE11C044A22F81100641C052C30
:100DB000F1DB10BD000C01406001002010B50246BF
:100DC00000200023054800EB810304E0046824B2FE
:100DD0001480921C001D9842F8D310BD00800008BA
:100DE0002DE9F04105460E460024A0460427FFF7F2
:100DF000DFFD3420FFF756FD0C48FFF759FD07468D
:100E00000A4C04EB860807E0B5F900102046FFF70E
:100E100099FD0746AD1C241D444501D2042FF3D093
:100E2000FFF786FD3846BDE8F0810000008000082D
:100E300038B501210C2000F0C3FB0121084600F069
:100E4000BFFB01211B48FFF75DFE0220ADF800004B
:100E500001208DF8020010208DF803006946164825
:100E6000FFF7C5FDFC20ADF8000001208DF8020061
:100E700010208DF8030069461048FFF7B8FD0024E4
:100E800006E0802040FA04F10C48FFF78CFE641C59
:100E9000062CF6DB4FF47840ADF8000001208DF809
:100EA000020048208DF8030069460448FFF79FFDC3
:100EB00038BD00000002300000080140000C014075
:100EC00010B586B004460121042000F079FB012111
:100ED000880300F075FB4FF40070ADF81400182083
:100EE0008DF8170003208DF8160005A91648FFF7A6
:100EF0007EFD4FF48060ADF8140004208DF81700DB
:100F000005A91148FFF773FD01940020ADF8080012
:100F1000ADF80A00ADF80C00ADF810000C20ADF8EB
:100F20000E0001A9094800F0DFFE00F011F80122CF
:100F300040F22551054800F0B2FE0121034800F0BF
:100F40006BFE06B010BD00000008014000380140F3
:100F500008B54FF4A06000F0ABFA25208DF8000032
:100F600000208DF8010001208DF802008DF80300AB
:100F7000684600F065FA08BD00BFFEE70248008839
:100F8000401C014908807047420100202DE9F84FBC
:100F9000B3480068407870B1B148006840780628CE
:100FA00004DDAF48006840780F2804DBAC480068D7
:100FB0004078102802DD0120BDE8F88FA9480078AC
:100FC000FA2803DCA7480078082801DA0320F3E7B1
:100FD000A4480078801EC1B2A1480068FFF7B4FAA7
:100FE0008246A0480078801E9D490968095C9D489A
:100FF0000078401E9A4A1268105C41EA0020009076
:101000000098824501D00320D6E795480068C07853
:1010100093490968897840EA012591480068407938
:101020008F490968097940EA01268D4800684078AF
:10103000012804D08A4800684078022844D1B6F5D7
:10104000707F01DD0320B7E7A819C82801DB022063
:10105000B2E783480068841C06F0070008B9F01066
:1010600001E0F010401C04F8010BAB464FF0000902
:1010700000271FE07C4830F81B0030B121780120A8
:1010800000FA09F00143217005E02078012101FAFE
:1010900009F18843207009F10100C0B28146082897
:1010A00002DB4FF00009641C0BF101001FFA80FB0A
:1010B000781C87B2B742DDDB694800688078401D44
:1010C0006A490870002077E765480068407805287D
:1010D00018D1C82D01DB02206EE7B6F57F4F04D191
:1010E0000120614921F8150007E026B900205E497A
:1010F00021F8150001E003205EE708205B49087035
:10110000002059E75648006840780F282BD1A819CD
:10111000C82801DB02204FE74FF000095048006863
:10112000C41D514800EB4508002715E02078012137
:1011300001FA09F1084008B1012000E0002028F878
:10114000020B09F10100C0B28146082802DB4FF012
:101150000009641C781C87B2B742E7DB08204349CA
:101160000870002028E73E4800684078032804D033
:101170003B480068407804282CD17D2E01DD0320F7
:101180001AE7A819C82801DB022015E734480068CF
:10119000841C374800EB45087006000E04F8010B6C
:1011A0002F460CE0B8F80000000A04F8010B98F88C
:1011B000000004F8010B08F10208781C87B2A81996
:1011C000B842EFDC264800688078401D2749087047
:1011D0000020F1E622480068407806280FD1C82D8B
:1011E00001DB0220E8E630B2214921F81500012098
:1011F0002049087008201D4908700020DCE61848C6
:1012000000684078102828D1A819C82801DB0220DE
:10121000D2E613480068C41D154800EB45082F4668
:1012200010E014F8011B080200B2A8F8000014F83E
:10123000010BB8F900100843A8F8000008F10208F3
:10124000781C87B2A819B842EBDC01200949087064
:101250000820064908700020AEE60020ACE6000039
:10126000340100203D010020F00200203E0100205A
:10127000600100203001002000B59BB03B483C4994
:10128000086000F580703B4908603B48B0F8CA0030
:10129000602818D03848B0F9CA00C02813D03648A2
:1012A000B0F9CA00B0F5C07F0DD03348B0F9CA001C
:1012B000B0F5906F07D04FF490602F49A1F8CA00A5
:1012C00001202E4908702C48B0F9CA00602808D0C7
:1012D000C0280AD0B0F5C07F0BD0B0F5906F10D108
:1012E0000BE00F20264908700FE00A2024490870FF
:1012F0000BE005202249087007E0322020490870E1
:1013000003E032201E49087000BF00BF1A48B0F940
:10131000C800401C18B11848B0F8C80028B901200E
:101320001549A1F8C80015490870FFF711FE1249C8
:10133000B1F9CA10642201FB02F0FFF7C1FD1048A9
:10134000007800900C48B0F9CA00642100FB01F35A
:101350000948B0F9C8200BA102A800F061FD02A95C
:10136000134800F047FD1BB000BD000080040020C2
:1013700034010020380100206001002030010020ED
:10138000400100200D0A53746174696F6E204E6F26
:101390003A2025642C2042617564726174653A209C
:1013A00025642020496E74657276616C3A2564006C
:1013B0000038014070B519480088194909788842F9
:1013C0002ADD18480568184800681649086016485C
:1013D0000560164800781649087000201349087007
:1013E00001201449087012480078082811DB0D48C4
:1013F000006800781049B1F9C810884209D1FFF798
:10140000C5FD04461CB12046FFF71AFA01E000F0C2
:1014100059F800200149088070BD000042010020F9
:101420004001002034010020380100203C01002050
:101430003D0100203F0100206001002070470000B6
:1014400070B5002100230F22C47804B3154C246822
:1014500004F4E064C4F5E064210AC1F10403CA4065
:10146000447804FA03F184781440214309010E4CB6
:101470000678A155047804F01F050124AC400578D6
:101480006D11AD0005F1E025C5F8004109E00478D3
:1014900004F01F050124AC40044D0678761145F890
:1014A000264070BD0CED00E000E400E080E100E0CB
:1014B00002490143024A1160704700000000FA052A
:1014C0000CED00E070B515480078801EC1B21448DC
:1014D0000068FFF739F8054610480078801E104A6A
:1014E0001268155429120D480078401E0C4A1268E3
:1014F000115400240DE00A480068015D094800F01D
:1015000064FC00BF4021074800F092FB0028F9D09E
:10151000641C024800788442EDDB70BD3E0100206F
:10152000340100200038014010B5002413E004F11C
:101530000A000A4931F8100030B9802040FA04F15D
:101540000748FFF730FB05E0802040FA04F104482B
:10155000FFF72BFB641C062CE9DB10BD60010020AB
:10156000000C01407047000001460020034A50680B
:1015700020F44040084350607047000000100240D3
:1015800029B1064A52690243044B5A6104E0034AF6
:1015900052698243014B5A617047000000100240BB
:1015A00029B1064AD2690243044BDA6104E0034AD6
:1015B000D2698243014BDA6170470000001002409B
:1015C00029B1064A92690243044B9A6104E0034A36
:1015D00092698243014B9A617047000000100240FB
:1015E00030B500210022002400232D4D6D6805F048
:1015F0000C0121B1042905D0082923D105E0294D8A
:10160000056022E0274D05601FE0254D6D6805F45B
:101610007012234D6D6805F48034022505EB92426B
:101620001CB9214D554305600BE01D4D6D6805F457
:1016300000351DB11C4D5543056002E0194D554361
:10164000056002E0174D056000BF00BF144D6D68D6
:1016500005F0F0010909154D6B5C0568DD4045603A
:101660000F4D6D6805F4E061090A104D6B5C45682B
:10167000DD4085600A4D6D6805F46051C90A0B4D67
:101680006B5C4568DD40C560054D6D6805F4404103
:10169000890B074D6B5CC568B5FBF3F5056130BD83
:1016A0000010024000127A0000093D0014000020E2
:1016B0002400002010B50848084908606430084933
:1016C000086064300749086000F082FA4FF4E130A6
:1016D00000F09AF910BD00008006002044010020AF
:1016E000480100204C010020704710B500F002F8BE
:1016F00010BD00000CB50020019000903348006838
:1017000040F480303149086000BF3048006800F480
:10171000003000900198401C0190009818B9019881
:10172000B0F5A06FF1D12948006800F4003010B185
:101730000120009001E0002000900098012843D192
:101740002348006840F010002149086008460068FE
:1017500020F0030008600846006840F002000860BE
:101760001A48406819494860084640684860084679
:10177000406840F4806048600846406820F47C106F
:1017800048600846406840F4E81048600846006831
:1017900040F08070086000BF0C48006800F00070E6
:1017A0000028F9D00948406820F003000749486044
:1017B0000846406840F00200486000BF03484068A7
:1017C00000F00C000828F9D10CBD00000010024008
:1017D000002002400A2805DA034A22F81010034AC2
:1017E00022F8101070470000AC070020C00700204E
:1017F00010B5FFF7C3FB1A48006820B91848006805
:10180000401E17490860002427E0164830F81400ED
:10181000C8B1144830F81400012801D11249085504
:10182000104830F81400114931F81410884202D1E0
:1018300001200F4908550B4830F81400401E094993
:1018400021F8140008E0002009490855094830F83B
:101850001400044921F81400641C0A2CD5DB10BDC7
:1018600058010020C0070020E8070020D40700200E
:10187000F2070020AC07002070B52449096842F245
:101880001073B1FBF3F2B2F1807F01D301211DE0AF
:1018900022F07F41491E4FF0E023596159170F2371
:1018A000002907DA1C07260E194C01F00F052D1F21
:1018B000665503E01C07250E164C655400BF002139
:1018C0004FF0E023996107211961002109B100BFA0
:1018D000FEE74FF0E021096961F001014FF0E022DD
:1018E000116100200EE000210B4A22F810100B4A73
:1018F00022F810100A4A22F810100A4A11540A4A13
:101900001154401C0A28EEDB70BD000000000020CE
:1019100018ED00E000E400E0AC070020C007002064
:10192000D4070020E8070020F207002010B5134874
:10193000006840F0010011490860084640681049FD
:1019400008400E494860084600680E4908400B49A7
:1019500008600846006820F4802008600846406857
:1019600020F4FE0048604FF41F008860FFF7BDFEC2
:101970004FF000600449086010BD000000100240F4
:101980000000FFF8FFFFF6FE08ED00E010B540F2A2
:101990002551174800F059F9E8B1154800F010FA40
:1019A000C4B21448007898B11348B0F9C800A042F6
:1019B00005D01248007810B900200E4908700F4871
:1019C00001780078401C0D4A10700D48006844549E
:1019D00000200C49088040F22771054800F035F9D5
:1019E00028B1002240F22771014800F058F910BDDB
:1019F000003801403F010020600100203C01002030
:101A0000380100204201002010B586B004460121B3
:101A10000420FFF7D5FD01214804FFF7C1FD012196
:101A20000846FFF7CDFD0420ADF8040003208DF833
:101A3000060018208DF8070001A91548FEF7D7FF0A
:101A40000820ADF8040004208DF8070001A9104813
:101A5000FEF7CDFF02940020ADF80C00ADF80E00AB
:101A6000ADF81000ADF814000C20ADF8120002A97A
:101A7000084800F039F9012240F22551054800F0EC
:101A80000EF90121034800F0C7F806B010BD0000B0
:101A9000000801400044004070B540F22551444820
:101AA00000F0D3F8002876D040F22551404800F0ED
:101AB000A4F83F4800F084F9C4B23E48008858B901
:101AC000FF2C68D13B4801880088401C394A1080AF
:101AD0003948006844545EE03648008801280FD138
:101AE0005A2C09D1334801880088401C314A1080A3
:101AF0003148006844544EE000202E4908804AE0F6
:101B00002C48008805280ED12B480068007940EA4F
:101B1000042009302949087008460078642802DD4D
:101B2000002024490880234801880088401C214A5D
:101B300010802148006844541046008806282ADD99
:101B4000104600881D490978884224DB332C22D1B5
:101B500019480068807806280AD11748056818488F
:101B6000006815490860164805600020154908708E
:101B700011480068807803280AD10F480568124888
:101B800000680D4908601048056000200F49087082
:101B900000200849088040F22771054800F055F8F8
:101BA00028B1002240F22771014800F078F870BD9A
:101BB00000440040520100204C010020540100204C
:101BC0004401002050010020480100205101002064
:101BD00008B54FF4C060FFF76BFC26208DF80000BD
:101BE00001208DF8010000208DF8020001208DF801
:101BF00003006846FFF724FC08BD10B5002200234F
:101C000040F66A14A14200D100BF0A120124944098
:101C1000A3B2DC43048010BD21B1828942F400529A
:101C2000828104E082894DF6FF731A4082817047F9
:101C300002460020B1F5007F00D100BF13880B40A1
:101C40000BB1012000E00020704770B5024600246F
:101C500000230025002040F66A16B14200D100BFE3
:101C6000C1F3421501F01F03012606FA03F3012D0B
:101C700002D19689334006E0022D02D1168A334004
:101C800001E0968A33400C12012606FA04F4168805
:101C9000344013B10CB1012000E0002070BDF0B55C
:101CA0000346002400260025002040F66A17B942AA
:101CB00000D100BF1846C1F3421401F01F060127EE
:101CC00007FA06F5012C01D10C3004E0022C01D1F9
:101CD000103000E014301AB107682F43076002E0AB
:101CE0000768AF430760F0BD2DE9F04786B00546B1
:101CF0000E460024A24600BFA1460027B08900B1CD
:101D000000BF2F462C8A4CF6FF700440F088044335
:101D10002C82AC894EF6F3100440B0883189084318
:101D2000718908430443AC81AC8A4FF6FF400440FC
:101D3000B0890443AC8201A8FFF752FC1F488742D8
:101D400002D1DDF810A001E0DDF80CA0A88900F4B4
:101D5000004040B10AEBCA0000EB0A1031684900AC
:101D6000B0FBF1F807E00AEBCA0000EB0A1031689B
:101D70008900B0FBF1F86420B8FBF0F00401200901
:101D8000642101FB1089A88900F4004040B1322091
:101D900000EBC900B0FBF1F000F00700044308E0DD
:101DA000322000EB09106421B0FBF1F000F00F00CD
:101DB00004432C8106B0BDE8F087000000380140E4
:101DC00001468888C0F308007047C1F3080282808A
:101DD000704700BFFEE770B504460D462946204611
:101DE000FFF7F3FF00BF80212046FFF721FF002807
:101DF000F9D070BD70B506460C46002500BF615D88
:101E00003046FFF7E8FF6D1C605D0028F7D100BF8A
:101E100040213046FFF70CFF0028F9D070BD0000CC
:101E20000FB4084B10B504A902AA039800F01CF8DF
:101E3000044602A9002000F0C1F8204610BC5DF85D
:101E400014FB0000BD1F000802E008C8121F08C1F3
:101E5000002AFAD170477047002001E001C1121F2B
:101E6000002AFBD1704700002DE9FF4F89B09B4647
:101E70000446002506E025280BD05A460B999047CA
:101E8000641C6D1C20780028F5D10DB02846BDE8F3
:101E9000F08F0027B8460122474900E0074314F8B5
:101EA000013F203B02FA03F00842F7D120782E28A8
:101EB00019D114F8010F47F004072A280ED06FF04B
:101EC0002F022078A0F1300109290CD808EB8801F5
:101ED00002EB410100EB0108641CF2E70A98641C64
:101EE00050F8048B0A9020780028CED0642808D0BF
:101EF000692806D075281ED05A460B9990476D1C4C
:101F000058E00A994FF00A0901C90A91002802DA3B
:101F100040422D2102E0390504D52B218DF82010F7
:101F2000012103E0F90704D02021F7E78A4608AE33
:101F30000DE00021FAE70A994FF00A0901C90A9158
:101F4000F7E74946FEF722F9303106F8011D00286F
:101F5000F7D1ADEB060000F12009780701D44FF06E
:101F60000108C84502DDA8EB090000E0002080461A
:101F7000002706E008A85A46C05D0B9990476D1CE3
:101F80007F1C5745F6DB04E030205A460B999047FA
:101F90006D1CB8F10001A8F10108F5DC05E016F8A8
:101FA000010B5A460B9990476D1CB9F10001A9F13C
:101FB0000109F4DC641C65E7092801000A68531C68
:101FC0000B60107070470000FFF756FCFEF730FF03
:101FD000FFF752F9FFF76EFBFEF762F9C8212B48B5
:101FE000FEF7ECFE2948B0F8DC00401C00B227499F
:101FF000A1F8DC000120264908700A2404E0002032
:10200000224921F81400641C102CF8DBC82101209F
:10201000FFF7E0FB64210220FFF7DCFB4FF47A714D
:102020000320FFF7D7FB02201A4908602DE0FFF7D5
:10203000C1F90120FEF7BCFD18B1FFF775FAFEF7F4
:10204000A7FE0220FEF7B4FD88B1124808380068E8
:1020500080F002000F4908390860FEF791FE0E4833
:10206000006820B1FEF7B4FD00200B490860032092
:10207000FEF79EFD48B10648007830B1C8210348FC
:10208000FEF7AEFE002002490870D0E76001002094
:1020900030010020140801405C0100200000C1C094
:1020A00081C1400101C3C003800241C201C6C00614
:1020B000800741C70005C1C581C4400401CCC00CE4
:1020C000800D41CD000FC1CF81CE400E000AC1CAA4
:1020D00081CB400B01C9C009800841C801D8C01894
:1020E000801941D9001BC1DB81DA401A001EC1DE14
:1020F00081DF401F01DDC01D801C41DC0014C1D404
:1021000081D5401501D7C017801641D601D2C01223
:10211000801341D30011C1D181D0401001F0C030F3
:10212000803141F10033C1F381F240320036C1F613
:1021300081F7403701F5C035803441F4003CC1FCE3
:1021400081FD403D01FFC03F803E41FE01FAC03AA3
:10215000803B41FB0039C1F981F840380028C1E8D3
:1021600081E9402901EBC02B802A41EA01EEC02E13
:10217000802F41EF002DC1ED81EC402C01E4C02403
:10218000802541E50027C1E781E640260022C1E223
:1021900081E3402301E1C021802041E001A0C06033
:1021A000806141A10063C1A381A240620066C1A613
:1021B00081A7406701A5C065806441A4006CC1ACE3
:1021C00081AD406D01AFC06F806E41AE01AAC06AA3
:1021D000806B41AB0069C1A981A840680078C1B893
:1021E00081B9407901BBC07B807A41BA01BEC07E13
:1021F000807F41BF007DC1BD81BC407C01B4C07403
:10220000807541B50077C1B781B640760072C1B222
:1022100081B3407301B1C071807041B00050C19072
:10222000819140510193C053805241920196C05612
:10223000805741970055C19581944054019CC05CE2
:10224000805D419D005FC19F819E405E005AC19AA2
:10225000819B405B0199C059805841980188C048D2
:1022600080494189004BC18B818A404A004EC18E12
:10227000818F404F018DC04D804C418C0044C18402
:10228000818540450187C047804641860182C04222
:10229000804341830041C18181804040BC220008CD
:1022A0000000002060010000DC0100088C23000811
:1022B00060010020500F0000581E00081184A24A3F
:1022C00004680901020304060708090C69101602D4
:1022D00004060811123C7213328A23A5021A7E3AB0
:1022E000237706237D081AE136230E0C237B0E2369
:1022F000F30F2357121AEC3123EC1523DA1723AF0F
:102300001963A81B322C32D62372011A0C481AB258
:10231000042321031ADC041A69541AA8041AFA04C3
:102320002328051A5A041A89041ACB041AE5044111
:10233000322B32D41A70401A093C1AAE045A1D408E
:102340001A65381AA3041AF6041A24301A56041A05
:1023500082041AC3045ADE40298029401A6F401AA9
:10236000073C1AAA041A1A3C1AD1041A5A381A98A5
:10237000041AE9041A16301A47041A72041A8D0452
:0C2380005A9D40C1E9131A0154C100002D
:0400000508000131BD
:00000001FF
